:100000000C9434000C9449000C9449000C94490061
:100010000C9449000C9449000C9449000C9449003C
:100020000C9449000C9449000C9449000C9449002C
:100030000C9449000C9449000C9449000C9449001C
:100040000C9449000C9449000C9449000C9449000C
:100050000C9449000C9449000C9449000C944900FC
:100060000C9449000C94490011241FBECFEFD8E036
:10007000DEBFCDBF11E0A0E0B1E0E2EEF2E002C0F1
:1000800005900D92AC30B107D9F70E9450000C9446
:100090006F010C940000569A83E08BB9209A089562
:1000A0002F923F924F925F926F927F928F929F9288
:1000B000AF92BF92CF92DF92EF92FF920F931F9376
:1000C000DF93CF93CDB7DEB72D970FB6F894DEBF91
:1000D0000FBECDBF1982DE011296E0E0F1E083E0B1
:1000E00001900D928150E1F7DE011596E3E0F1E019
:1000F00083E001900D928150E1F7DE011896E6E071
:10010000F1E083E001900D928150E1F7DE011B9652
:10011000E9E0F1E083E001900D928150E1F7569A19
:1001200083E08BB9209A0E942D010E94550187E639
:1001300090E00E945C01EBE06E2E712C6C0E7D1E37
:1001400073EF272E69E1E62EF12C58E0852E912CD5
:100150008C0E9D1E43EB342E35E0A32EB12CAC0E3D
:10016000BD1E29E6422E92E0C92ED12CCC0EDD1EFA
:1001700084E3582E0E94240189838981813009F00B
:1001800061C0289A80E00E9436019C01893C91055B
:1001900090F4860102C00E946701F80181918F01ED
:1001A0008823C9F757BC80E29EE4F7013197F1F745
:1001B0000197D9F7DFCF825D90408352914090F450
:1001C000850102C00E946701F80181918F01882397
:1001D000C9F747BC80E29EE4F7013197F1F7019738
:1001E000D9F7C8CFC9018E5F91408F3B910590F43C
:1001F000840102C00E946701F80181918F01882368
:10020000C9F737BC80E29EE4F7013197F1F7019717
:10021000D9F7B0CF265C32402B53314008F0AACF3B
:10022000830102C00E946701F80181918F01882338
:10023000C9F727BC80E29EE4F7013197F1F70197F7
:10024000D9F798CF289896CF489B02C080E00895B0
:1002500089B1869580958170089580E480937C00B3
:10026000EAE7F0E0808187688083089590917C00C0
:10027000987F90937C0090917C008770892B80936D
:100280007C0080917A00806480937A0080917A006B
:1002900084FFFCCF80917A00806180937A00209166
:1002A000780030917900C901089584B5836884BDD0
:1002B00085B5836085BD08959093C5008093C40083
:1002C00088E18093C1008EE08093C2000895982F4A
:1002D0008091C00085FFFCCF9093C6000895F894EC
:0202E000FFCF4E
:0C02E20032300032350032390033320077
:00000001FF
